:020000040800F2
:1000000068B80020C94E0008C9040008CB040008E5
:10001000CF040008D3040008D70400080000000043
:10002000000000000000000000000000DB040008E9
:10003000DD040008000000007FAF00086D4C0008E0
:10004000E34E0008E34E0008E34E0008E34E0008CC
:10005000E34E0008E34E0008E34E0008E34E0008BC
:10006000E34E0008E34E0008E34E0008E34E0008AC
:10007000E34E0008E34E0008E34E0008E34E00089C
:10008000E34E0008E34E0008E34E0008E34E00088C
:10009000E34E0008E34E0008E34E0008E34E00087C
:1000A000E34E0008E34E0008E34E0008E34E00086C
:1000B000E34E0008E34E0008E34E0008E34E00085C
:1000C000E34E0008E34E0008E34E0008E34E00084C
:1000D000E34E0008214E000823390008E34E0008D3
:1000E000E34E0008E34E0008E34E0008E34E00082C
:1000F000E34E0008E34E0008E34E0008E34E00081C
:10010000E34E0008E34E0008E34E0008E34E00080B
:10011000E34E0008E34E0008E34E0008E34E0008FB
:10012000E34E0008E34E0008E34E0008E34E0008EB
:1001300000F002F800F06EF80AA090E8000C82448B
:100140008344AAF10107DA4501D100F063F8AFF268
:10015000090EBAE80F0013F0010F18BFFB1A43F0A5
:1001600001031847D0B00100F0B001000A444FF07D
:10017000000C10F8013B13F0070408BF10F8014B06
:100180001D1108BF10F8015B641E05D010F8016B4B
:10019000641E01F8016BF9D113F0080F1EBF10F8AF
:1001A000014BAD1C0C1B09D16D1E58BF01F801CBD2
:1001B000FAD505E014F8016B01F8016B6D1EF9D555
:1001C0009142D6D37047000000230024002500266A
:1001D000103A28BF78C1FBD8520728BF30C148BFAA
:1001E0000B607047642916F03D81782916F07681FE
:1001F000732916F07B83002070471FB516F0C0FCF2
:1002000004000020002116F013FD401C60601FBD9B
:1002100010B510BD16F08FFC1146FFF7EEFF00F091
:1002200000F916F0BFFC03B4FFF7F2FF03BC04F0C3
:100230009DFD000038B56A4601219548006809F027
:1002400056FB04469DF800000A2800D138BD2088DE
:1002500003F0EDFE00B9F9E70E200AF06EFC20462F
:1002600004F08BFB00BFF1E700BF09E0FFF7E2FFFE
:100270000CF028FD0A230022114610460AF056FD14
:10028000F4E700BF0CF09FFE07E004F0D4FC052368
:100290000022114610460AF049FDF6E700BF0DE0C6
:1002A00007200AF04AFC03F021F907200AF0B3FB0B
:1002B00000230122194618460AF038FDF0E708B578
:1002C00000BF45E06A4600217248006809F00FFB54
:1002D0000446607830382178303901EB810100EB39
:1002E0004100C5B20E200AF028FC0B2D2CD2DFE80D
:1002F00005F02B060A0E12161A1E2225280020468B
:1003000003F003F820E0204603F0BDF81CE020468F
:1003100003F0F4FD18E0204603F040FD14E0204611
:1003200003F06AFC10E00A2003F01DFC0CE00A2038
:1003300003F088FF08E003F00BFF05E003F0EEFB9D
:1003400002E002F027FE00BF00BF0E200AF063FBB0
:10035000B8E700BF13E000204F49086003464FF0A4
:100360000202194618460AF0E1FC01204B49C1F887
:10037000980100230222194618460AF0D7FCEAE742
:1003800000BF13E000204649086003464FF0010219
:10039000194618460AF0CAFC01204249C1F89401E6
:1003A00000230122194618460AF0C0FCEAE770B59E
:1003B0000446002500BF08F005FC0AF0B9FD05461B
:1003C0000523394A0021AFF247000AF032F906232B
:1003D000364A0021AFF285000AF02BF90723344A90
:1003E0000021AFF225100AF024F90E23314A002132
:1003F000AFF257100AF01DF90F232F4A0021AFF278
:100400007D100AF016F910232C4A0021AFF2A71034
:100410000AF00FF913200AF090FB28460AF08CFD31
:1004200070BD10B504F02AFC02F078FC4FF4A06017
:1004300005F0ECFA4FF4165004F0A6FC4FF46140BE
:1004400003F07DF902F04DFB0CF0C7FC03F0E0FA7D
:10045000002010F0E3FA08F078FA002009F0C1F962
:100460000C490860002009F0BCF91549086000201B
:1004700009F0B7F9064908601323124A0021AFF2C8
:10048000D1000AF0D6F808F085FB002010BD00006E
:1004900008000020000000209881224200802242B3
:1004A00094812142008021420C0600200C0700208C
:1004B0000C1100200C3100200C5100200C71002088
:1004C000040000200C050020704700BFFEE700BFBD
:1004D000FEE700BFFEE700BFFEE770477047000081
:1004E0000CB50020019000906B48006840F480300B
:1004F0006949086000BF6848006800F40030009057
:100500000198401C0190009818B90198B0F5A06FAF
:10051000F1D16148006810F4003F02D00120009042
:1005200001E0002000900098012842D15B4800685B
:1005300040F01000594908600846006820F00300A8
:1005400008600846006840F00200086052484068B1
:10055000514948600846406848600846406840F491
:10056000806048600846406820F47C104860084677
:10057000406840F4E81048600846006840F0807029
:10058000086000BF4448006810F0007FFAD042487D
:10059000406820F00300404948600846406840F049
:1005A0000200486000BF3C48406800F00C0008288A
:1005B000F9D10CBD10B5FFF793FF10BD10B536484B
:1005C000006840F00100344908600846406834493A
:1005D00008403149486008460068324908402E49C1
:1005E00008600846006820F48020086008464068DB
:1005F00020F4FE0048604FF41F008860FFF7DAFF28
:100600004FF000602849086010BD10B5002100209F
:100610000022214B5B6803F00C0121B1042906D0B4
:10062000082928D107E0214B214C236027E01F4BEC
:100630001F4C236023E0184B5B6803F47010164BCB
:100640005B6803F48032022303EB904022B9194B1C
:100650004343174C23600DE00F4B5B6813F4003FDE
:1006600004D0144B4343124C236003E00F4B43432D
:100670000F4C236003E00D4B0D4C236000BF00BF07
:10068000054B5B68C3F303130B4CE15C084B1B6821
:10069000CB40074C236010BD0010024000200240F8
:1006A0000000FFF8FFFFF6FE08ED00E000127A0000
:1006B0001400002000093D001800002008B50020AB
:1006C00005F03DFA002005F03DFA05F00DFA002195
:1006D0004FF4806004F021FF4FF4F850ADF80000B3
:1006E00004208DF803006946FE4804F06DFC0420E8
:1006F000ADF800006946FC4804F066FC08BD08B58A
:100700000121B02004F016FF4FF4F850ADF80000BE
:1007100003208DF8020018208DF803006946F14887
:1007200004F052FC0420ADF800006946EE4804F0E5
:100730004BFC4FF40060ADF8000048208DF803003A
:100740006946EA4804F040FC0121880204F0E5FE15
:100750000121022004F0E1FE08BD30B58BB0054652
:100760000C46E34805F0A7FB0021E24805F075FBC5
:10077000E1480090019510200290A008039000200D
:100780000490802005908000069080000790002053
:1007900008904FF40050099000200A906946D5480F
:1007A00005F030FB0121D34805F057FB0BB030BDFD
:1007B00030B58BB005460C46CD4805F07CFB0021DA
:1007C000CC4805F04AFBCC480090019500200290EF
:1007D000A0080390002004908020059080000690DF
:1007E00080000790002008904FF4005009900020EE
:1007F0000A906946BF4805F005FB0121BD4805F098
:100800002CFB0BB030BD10B5BC4805F041FB10BD52
:1008100010B5FFF753FF10BD01462A2019B1012979
:1008200001D0022902D1B64A116000E026207047AB
:100830002DE9F04106462A27AF488038456B02E093
:10084000AD488038456B15F0450FF9D015F0040F11
:1008500006D00327042005F011FA3846BDE8F081E0
:1008600015F0010F05D00127012005F007FA3846E1
:10087000F4E705F0A1F9B04202D010273846EDE7C1
:1008800040F2FF5005F0FAF9002005F099F904460E
:100890009C48044201D13846E0E714F0004F01D0F3
:1008A0001C20DBE714F0804F01D00920D6E714F0BC
:1008B000005F01D00A20D1E714F0805F01D00B2047
:1008C000CCE714F0006F01D00C20C7E714F0806F64
:1008D00001D00D20C2E714F0807F01D00E20BDE7CB
:1008E00014F4000F01D00F20B8E714F4800F01D0EA
:1008F0001020B3E714F4001F01D01120AEE714F468
:10090000801F01D01220A9E714F4002F01D013207A
:10091000A4E714F4802F01D014209FE714F4003FC3
:1009200001D015209AE714F4803F01D0162095E7F6
:1009300014F4004F01D0172090E714F4804F01D039
:1009400018208BE714F4005F01D0192086E714F01B
:10095000080F01D01A2081E738467FE72DE9FC41D6
:1009600007460D4600262A2400200090019008200A
:100970006549086010204860402088600020C860F9
:100980004FF480600861084605F0FCF81020FFF77E
:100990004FFF04462A2C02D02046BDE8FC815B486C
:1009A000008800045849086037204860402088606B
:1009B0000020C8604FF480600861084605F0E2F846
:1009C0003720FFF735FF04462A2C01D02046E4E704
:1009D0004F48504908600820486030208860022055
:1009E000C8600020086101204861084605F0F3F85E
:1009F000002045490860332048604020886000207E
:100A0000C8604FF480600861084605F0BBF83320E9
:100A1000FFF70EFF04462A2C01D02046BDE709E06F
:100A20004FF4001005F020F920B105F0F6F84DF86C
:100A30002600761C30488038406B40F22A6108421C
:100A4000EED0082005F010F928B1082005F016F9BD
:100A500004242046A1E7022005F006F928B102206F
:100A600005F00CF90224204697E7202005F0FCF859
:100A700028B1202005F002F9062420468DE74FF426
:100A8000007005F0F1F830B14FF4007005F0F6F8A1
:100A90000724204681E740F2FF5005F0EFF8009868
:100AA0000006009901F47F4140EA0120009901F419
:100AB0007F0140EA1120009940EA116068600198C6
:100AC0000006019901F47F4140EA0120019901F4F7
:100AD0007F0140EA1120019940EA11602860204618
:100AE0005BE700000010014000140140001C0140C1
:100AF00000F00010440402408080014000200010FB
:100B00003000002008E0FFFD987100202C0000203C
:100B1000FFFF0F00AC7100207CB505462A240020A1
:100B20000090019005F04CF810F0007F02D00E24E8
:100B300020467CBDFE49098888B26946FFF70EFF52
:100B400004462A2C01D02046F3E7012D37D1019825
:100B500010F4802F30D0F64800880004F549086072
:100B600037204860402088600020C860A8020861E3
:100B7000084605F007F83720FFF75AFE04462A2CEE
:100B800001D02046D5E70220EA49086006204860E7
:100B9000402088600020C8604FF4806008610846EB
:100BA00004F0F0FF0620FFF743FE04462A2C01D094
:100BB0002046BEE72046BCE725242046B9E7019839
:100BC00010F4803F31D0DA4800880004D949086029
:100BD00037204860402088600020C8604FF4806063
:100BE0000861084604F0CEFF3720FFF721FE0446D7
:100BF0002A2C01D020469CE70020CE490860062020
:100C00004860402088600020C8604FF48060086120
:100C1000084604F0B7FF0620FFF70AFE04462A2C18
:100C200001D0204685E7204683E72524204680E73B
:100C300070B504462A25C0480068032802D127253C
:100C4000284670BDBC48006838B1BB480068012820
:100C500003D0B9480068022830D1B4F5805F02D1D2
:100C600027252846EDE7B4F5006F15D10120FFF7E1
:100C700053FF05462A2D21D10120B04908750020D7
:100C80000860486088604FF40060C8600020086118
:100C9000084604F037FF11E00020FFF73DFF05464E
:100CA0002A2D0BD10120A549087500200860486055
:100CB0008860C8600861084604F024FF2846C0E741
:100CC00070B504462A259B4804600720994948606E
:100CD000402088600020C8604FF4806008610846AA
:100CE00004F050FF0720FFF7A3FD0546284670BD1E
:100CF00030B501462A2000228F4B1B7881F84E30F8
:100D00008B4B1B88A1F84C308D4B1B681A0E930936
:100D10000B70C2F383034B7002F003038B70884B9C
:100D20001B68C3F30742CA70854B1B88C3F30722B5
:100D30000A71834B1A784A715B681A0E1301CB80D3
:100D40007F4B5B68C3F30742CB8843EA1213CB8027
:100D500002F00F030B727A4B9B88C3F30722D3096F
:100D60004B72C2F380138B72C2F34013CB72C2F387
:100D700000130B7300234B736F4B1B681BB16E4B3F
:100D80001B68012B3CD193071B0D0B616C4B1A792F
:100D90000B6943EA82030B61694B9B681A0E0B696E
:100DA00043EA92130B61C2F3C2030B7502F007030F
:100DB0004B75634B9B68C3F3074253098B75C2F3B2
:100DC0008203CB7593075B0F0B765D4B1B89C3F3D7
:100DD00007220B7E43EAD2130B760B695B1C4B6434
:100DE0000C7E4B6CA41C0125A5406B434B640C7A14
:100DF0000123A3408B64D1E9113463434B6421E0A8
:100E00004D4B1B68022B1DD14D4B1A7993069B0A43
:100E10000B614B4B9B681A0E0B6943EA02230B6173
:100E2000474B9B68C3F307420B6913430B61444B69
:100E30001B89C3F307220B695B1CDB044B644FF473
:100E400000738B64C2F3801301F8193F93065B0EA5
:100E50004B703B4B1A7A4B7843EAD2134B7002F03B
:100E60007F038B70364BDB681A0ED309CB70C2F34D
:100E700041130B71C2F382034B7193071B0F8B71EC
:100E80002F4BDB68C3F307428B7943EA92138B71D4
:100E9000C2F34013CB7100230B7202F001034B72BB
:100EA000274B9B89C3F30722D3098B72C2F38013AC
:100EB000CB72C2F340130B73C2F300134B73C2F334
:100EC00081038B7302F00303CB731D4B1A7B530812
:100ED0000B7401234B741B4B1B681A0ECA74A1F1CF
:100EE0001901184B1B68C3F307424FEA0224CC8553
:100EF000144B1B88C3F30722CB8D43EA0203CB8537
:100F0000104B1A784FEA02640C635B684FEA136275
:100F10000B6B43EA02440C630A4B5B68C3F3074262
:100F20000B6B43EA02240C63064B9B880CE0000029
:100F30002C000020987100202800002080710020E3
:100F40001071002020710020C3F307220B6B43EACD
:100F500002030B63FE4B1A794FF034035A54FC4BD7
:100F60009B684FEA13624FF035035A54F84B9B6865
:100F7000C3F307424FEA02648C63F54B1B89C3F34A
:100F800007228B6B43EA02448C63F14B1A7A8B6B1A
:100F900043EA02248C63EE4BDB684FEA13628B6BEF
:100FA00043EA02038B63EA4BDB68C3F307424FF06B
:100FB0003C035B5C43EA12144FF03C035C544FEA81
:100FC00002734FEA1354CC87E14B9B89C3F307228A
:100FD000CB8F43EA0203CB87DD4B1A7B4FEA5204E7
:100FE0004FF040035C544FF001044FF041035C5458
:100FF00030BD70B52A25D748446B01E0D548446B15
:1010000014F0450FFAD014F0040F05D00325042086
:1010100004F034FE284670BD14F0010F05D0012500
:10102000012004F02BFE2846F5E740F2FF5004F0C3
:1010300025FE2846EFE72DE9F04106460F464FF022
:101040002A08C448456B01E0C248456B15F0450FBE
:10105000FAD015F0040F07D04FF00308042004F075
:101060000DFE4046BDE8F08115F0010F06D04FF0AF
:101070000108012004F002FE4046F3E704F09CFD65
:10108000B04203D04FF010084046EBE740F2FF506B
:1010900004F0F4FD002004F093FD044614F4604FC6
:1010A00003D1200C38804046DCE714F4005F01D007
:1010B0001320D7E714F4804F01D01020D2E714F4A6
:1010C000004F01D00F20CDE74046CBE738B52A24AA
:1010D0000120009004F041FD10B92524204638BDC0
:1010E0009D480068042829D000209C4908600220FF
:1010F0004860C02088600020C8604FF480600861AC
:10110000084604F03FFDFFF774FF04462A2C01D087
:101110002046E4E7002004F053FD8D4908600420D8
:1011200004F04EFD8A494860082004F049FD8849D2
:1011300088600C2004F044FD8549C860864800683A
:1011400058B185480068012807D083480068062800
:1011500003D081480068022817D100207F49086029
:1011600003204860402088600020C8604FF4806001
:101170000861084604F006FD69460320FFF75BFF9F
:1011800004462A2C01D02046A9E7734800680428A9
:101190002FD0BDF8000072490860BDF800000004BF
:1011A0006E49086009204860C02088600020C8603F
:1011B0004FF480600861084604F0E4FCFFF719FF73
:1011C00004462A2C01D0204689E7002004F0F8FCD0
:1011D00064490860042004F0F3FC62494860082078
:1011E00004F0EEFC5F4988600C2004F0E9FC5D49E6
:1011F000C8602A24204672E770B52A255548446BFA
:1012000001E05448446B14F0450FFAD014F0040F79
:1012100005D00325042004F031FD284670BD40F2BE
:10122000FF5004F02BFD2846F8E770B52A264FF44E
:1012300080354848446B02E06D1E4648446B14F00C
:10124000450F01D1002DF7D115B114F0040F05D0D1
:101250000326042004F012FD304670BD14F0400F48
:1012600005D02A26402004F009FD3046F5E7304637
:10127000F3E770B52A254FF4803400E0641E24B1F2
:10128000802004F0F1FC0028F8D014B9032528468A
:1012900070BD40F2FF5004F0F1FC2846F8E72DE95C
:1012A000F0412A240026002500274FF00008B22034
:1012B0002D4908750020086048608860C860086192
:1012C000084604F01FFC032004F03CFC012004F05D
:1012D00036FC00202149086048608860C8604FF4EF
:1012E00080600861084604F04DFCFFF7C2FF044629
:1012F0002A2C02D02046BDE8F0814FF4D570174962
:10130000086008204860402088600020C8604FF4D2
:1013100080600861084604F035FCFFF786FF04464C
:101320002A2C05D101200C4908604FF0804821E0AB
:1013300000200A490860372048604020886000206B
:10134000C8604FF480600861084604F01BFC0DE0A3
:1013500020710020008001402800002098710020AA
:101360002C00002010710020807100203720FFF732
:101370005FFA04460020F9490860372048604020A1
:1013800088600020C8604FF480600861084604F05F
:10139000F9FB3720FFF74CFA04462A2C4CD138E0F1
:1013A0000020EE4908603720486040208860002017
:1013B000C8604FF480600861084604F0E3FB372002
:1013C000FFF736FA04462A2C01D0204693E7E4487A
:1013D00048EA0000E1490860292048604020886010
:1013E0000020C8604FF480600861084604F0CAFB22
:1013F000FFF702FF04462A2C01D020467BE700209D
:1014000004F0DEFB0646012080EAD67080F001077A
:101410006D1C1FB94FF6FF708542C1D34FF6FF70A8
:10142000854202D31B24204665E706F08040060073
:1014300002D00220CB49086020465CE710B52A2480
:10144000FFF75DF904F050FBFFF729FF04462A2C53
:1014500001D0204610BDFFF739FE04462A2C01D0EA
:101460002046F7E70120C049087500200860486061
:101470008860C8600861084604F044FB2A2C03D148
:10148000BA48FFF735FC04462A2C06D1B749B1F813
:101490004C100804FFF714FC04462A2C04D14FF426
:1014A0000060FFF7C5FB04462A2C03D10020FFF79C
:1014B000B3F904462046CDE770B504462A2514B991
:1014C0002625284670BDAA4800880004A349086064
:1014D0000D204860402088600020C8604FF4806084
:1014E0000861084604F04EFB0D20FFF7A1F9054600
:1014F0002A2D01D02846E5E7002004F061FB20609A
:101500002846DFE708B501200090C102994803F0A2
:10151000ECFD08B1002000909DF8000008BD08B562
:1015200000200090FFF7EEFF01280AD16846FFF780
:10153000C3FF2A2801D0FF2008BD0098C0F3432034
:10154000FAE7FF20F8E710B50424FFF7E8FF0446A8
:10155000042C01D1002010BDFF2C01D10220FAE79C
:101560000120F8E710B52A24002004F0EBFA204609
:1015700010BD0146002002E04910421CD0B20129F2
:10158000FAD170472DE9F04706460F4614464FF052
:101590002A084FF0000935464FF0000A26B94FF0EF
:1015A00026084046BDE8F0872A20734908700020CD
:1015B00072490860724908607248734908600020E7
:1015C00048608860C86008614861084604F003FB11
:1015D000002004F0D4FA002004F0F2FA10F0007FAA
:1015E00003D04FF00E084046DCE75E480068022852
:1015F00001D104027F0A002C21DDB4F5006F1EDC4E
:10160000601E20421BD12046FFF7B3FF824653489D
:101610000460102051494860402088600020C86064
:101620004FF480600861084604F0ACFA1020FFF720
:10163000FFF88046B8F12A0F05D04046B2E74FF0D8
:1016400026084046AEE74F484F49086008464460C8
:101650004FEA0A1088600220C8600020086101205B
:101660004861084604F0B7FA45480460002047493D
:1016700008604748066039480760112037494860CC
:10168000402088600020C8604FF4806008610846F0
:1016900004F078FA1120FFF7CBF88046B8F12A0F52
:1016A00001D040467EE73B480068022877D111E030
:1016B0004FF4004004F0D8FA60B14FF0000905E0A3
:1016C00004F0ABFA45F8290009F10109B9F1080F56
:1016D000F6D320353048406B40F22A610842E7D00B
:1016E000082004F0C1FA30B1082004F0C7FA4FF026
:1016F0000408404656E7022004F0B6FA30B1022052
:1017000004F0BCFA4FF0020840464BE7202004F0FA
:10171000ABFA30B1202004F0B1FA4FF00608404691
:1017200040E74FF4007004F09FFA38B14FF40070B6
:1017300004F0A4FA4FF00708404633E703E004F052
:101740006CFA28602D1D4FF4001004F08DFA00286B
:10175000F5D140F2FF5004F091FA59E09871002061
:1017600000001080280000208071002030710020CF
:101770002C000020001C01403C0000204000002004
:1017800034000020FFFF0F00AC7100203800002063
:101790004C0000203000002000800140FFE7F748A7
:1017A0000068012813D1012148F22A3004F0DAF947
:1017B00000BFF348006818B9F24800782A28F8D02A
:1017C000F04800782A2823D0EE480078EAE6EB4873
:1017D0000068E8B9012140F22A3004F0C3F9012081
:1017E00004F0CDF921463046FEF7E2FF00BFFFF7D7
:1017F0000AF830B9E248006818B9E24800782A28A7
:10180000F5D0E04800782A2802D0DE480078C9E602
:101810004046C7E62DE9F05F0746894614461D4657
:101820004FF02A084FF0000A3E464FF0000B27B950
:101830004FF026084046BDE8F09F2A20D1490870A5
:101840000020CF490860D0490860D048D0490860DE
:10185000002048608860C86008614861084604F05C
:10186000BAF9002004F08BF9002004F0A9F910F077
:10187000007F03D04FF00E084046DCE7C548006803
:10188000022802D104024FEA5929002C21DDB4F5C7
:10189000006F1EDC601E20421BD12046FFF769FE50
:1018A0008346BD4804601020BB49486040208860E2
:1018B0000020C8604FF480600861084604F062F9B7
:1018C0001020FEF7B5FF8046B8F12A0F05D040463C
:1018D000B1E74FF026084046ADE7012D6FD905FB73
:1018E00004F0B0F1007F03D34FF026084046A2E792
:1018F00005FB04F0A44908600120A8490860A84835
:101900000760A248A249086005FB04F048604FEA5E
:101910000B1088600220C860002008610120486127
:10192000084604F058F99C48C0F8009012209A49E3
:101930004860402088600020C8604FF480600861E3
:10194000084604F01FF91220FEF772FF8046B8F136
:101950002A0F01D040466EE78848006802287AD1F5
:1019600011E04FF4004004F07FF960B14FF0000A3D
:1019700005E004F052F946F82A000AF1010ABAF12A
:10198000080FF6D320368748406B40F22A310842D0
:10199000E7D0082004F068F930B1082004F06EF9AF
:1019A0004FF00408404646E7022004F05DF938B1E4
:1019B000022004F063F94FF0020840463BE78AE05A
:1019C000202004F051F930B1202004F057F94FF0F5
:1019D000060840462FE74FF4007004F045F938B18F
:1019E0004FF4007004F04AF94FF00708404622E730
:1019F00003E004F012F93060361D4FF4001004F0DB
:101A000033F90028F5D14FF4807004F02DF918B3A4
:101A10006048006838B15F480068022803D05D481C
:101A20000068012818D100205B4908600C2048603C
:101A3000402088600020C8604FF48060086108463C
:101A400004F0A0F80C20FEF7F3FE8046B8F12A0F50
:101A500002D04046EFE604E040F2FF5004F00EF9F9
:101A600039E046480068012813D1012148F22A30A4
:101A700004F078F800BF4248006818B9414800787F
:101A80002A28F8D03F4800782A2824D03D480078FA
:101A9000D1E63A480068F0B9012140F22A3004F05A
:101AA00061F8012004F06BF805FB04F13846FEF7FD
:101AB0007FFE00BFFEF7A7FE30B93148006818B9B5
:101AC000304800782A28F5D02E4800782A2802D0FD
:101AD0002C480078AFE64046ADE67CB504462A25A2
:101AE0000020019000903048008800042A490860D6
:101AF0000D204860402088600020C8604FF480605E
:101B00000861084604F03EF82648406B009002E069
:101B10002448406B0090009810F0450FF8D00098D2
:101B200010F0040F05D00325042004F0A7F8284680
:101B30007CBD009810F0010F05D00125012004F0B4
:101B40009DF82846F4E704F037F8009000980D2837
:101B500002D010252846EBE740F2FF5004F08EF843
:101B6000002004F02DF801900198C0F3432020706C
:101B70000E49019808421BD12846D9E730000020C1
:101B8000400000203C00002034000020FFFF0F0038
:101B9000AC7100202800002098710020380000203F
:101BA0004C000020008001402C00002008E0FFFDD8
:101BB000019810F0004F01D01C20B9E7019810F0F7
:101BC000804F01D00920B3E7019810F0005F01D0E9
:101BD0000A20ADE7019810F0805F01D00B20A7E745
:101BE000019810F0006F01D00C20A1E7019810F0CF
:101BF000806F01D00D209BE7019810F0807F01D00D
:101C00000E2095E7019810F4000F01D00F208FE708
:101C1000019810F4800F01D0102089E7019810F48A
:101C2000001F01D0112083E7019810F4801F01D01C
:101C300012207DE7019810F4002F01D0132077E7E0
:101C4000019810F4802F01D0142071E7019810F44E
:101C5000003F01D015206BE7019810F4803F01D0C0
:101C6000162065E7019810F4004F01D017205FE7B8
:101C7000019810F4804F01D0182059E7019810F412
:101C8000005F01D0192053E7019810F0080F01D030
:101C90001A204DE728464BE72DE9FF5F81468A462B
:101CA00014462A25002003900290834600260190C6
:101CB00000270090C846B9F1000F04D12625284618
:101CC00004B0BDE8F09F2A20FE4908700020FE49BC
:101CD0000860FE490860FE48FE4908600020486030
:101CE0008860C86008614861084603F074FF0020FE
:101CF00003F045FF002003F063FF10F0007F02D0E7
:101D00000E252846DCE7F4480068022802D10402C8
:101D10004FEA5A2A002C20DDB4F5006F1DDC601E4E
:101D200020421AD12046FFF724FC0390EB480460C0
:101D30001020EA494860402088600020C8604FF4C5
:101D400080600861084603F01DFF1020FEF770FD5B
:101D500005462A2D04D02846B2E726252846AFE7B7
:101D6000DF4800880004DD4908600D2048604020FD
:101D700088600020C8604FF480600861084603F066
:101D800001FF0D20FEF754FD05462A2D01D02846FF
:101D900096E7002003F014FF0190DFF834B31EE053
:101DA000ABF1010BCE4800880004CC4908600D203F
:101DB0004860402088600020C8604FF4806008615F
:101DC000084603F0DFFE0D20FEF732FD05462A2D02
:101DD00001D0284674E7002003F0F2FE019001983C
:101DE00010F4807F02D1BBF1000FD9D1BBF1000FFD
:101DF00001D1292064E7B948C0F800A01820B749EC
:101E00004860402088600020C8604FF4806008610E
:101E1000084603F0B7FE1820FEF70AFD05462A2DF6
:101E200001D028464CE7A94804600020AD4908606D
:101E3000AD48C0F80090A648A6490860084644602E
:101E40000398000188600020C86008610120486193
:101E5000084603F0C0FEA5480068022865D134E0BA
:101E60004FF4804003F000FF78B398480068801B6F
:101E700020281ED295480078801B10F0030F04D153
:101E800092480068801B800804E090480068801B2E
:101E90008008401C0090002707E0D8F8000003F0FD
:101EA000BFFE7F1C08F10408361D009887420CD243
:101EB000F3E7002704E058F8270003F0B1FE7F1C89
:101EC000082FF8D308F1200820368948406B40F2EB
:101ED0001A610842C4D0082003F0C6FE28B10820C9
:101EE00003F0CCFE04252846EAE6022003F0BCFEFF
:101EF00028B1022003F0C2FE02252846E0E61020A9
:101F000003F0B2FE28B1102003F0B8FE05252846E4
:101F1000D6E64FF4007003F0A7FEE8B34FF400706C
:101F200003F0ACFE07252846CAE670480068012881
:101F300013D1012144F21A3003F014FE00BF6248AD
:101F4000006818B95F4800782A28F8D05D48007802
:101F50002A2825D05B480078B2E664480068D8B9E2
:101F6000012140F21A3003F0FDFD21464846FEF7FC
:101F7000F4FB012003F003FE00BFFEF744FC30B980
:101F80005148006818B94F4800782A28F5D04D48C4
:101F900000782A2804D000E002E04A4800788FE662
:101FA00040F2FF5003F06AFE02A8FFF796FD0546D7
:101FB00003E002A8FFF791FD05462A2D07D19DF801
:101FC00008000728F5D09DF808000628F1D028461B
:101FD00076E62DE9FE4F81468A4614461E462A259E
:101FE0004FF0000B0020029000270190C84600909F
:101FF000B9F1000F03D126252846BDE8FE8F2A201F
:102000003049087000203049086030490860304885
:1020100030490860002048608860C86008614861F5
:10202000084603F0D8FD002003F0A9FD002003F0CE
:10203000C7FD10F0007F02D00E252846DDE72648B8
:102040000068022802D104024FEA5A2A002C20DD3F
:10205000B4F5006F1DDC601E20421AD12046FFF748
:1020600088FA83461D48046010201C4948604020BF
:1020700088600020C8604FF480600861084603F063
:1020800081FD1020FEF7D4FB05462A2D04D02846FA
:10209000B3E726252846B0E71148008800040F4919
:1020A00008600D204860402088600020C8604FF420
:1020B00080600861084603F065FD0D20FEF7B8FB5F
:1020C000054617E03C0000204000002034000020BE
:1020D000FFFF0F00AC710020280000209871002045
:1020E0002C00002038000020480000203000002094
:1020F000008001402A2D01D028467EE7012E7AD9A2
:1021000006FB04F0B0F1007F02D32625284674E7D1
:10211000FE48006838B1FD480068012803D0FB483C
:10212000006802282FD1FA4800880004F9490860A5
:1021300037204860402088600020C8604FF48060ED
:102140000861084603F01EFD3720FEF771FB0546C7
:102150002A2D01D0284650E7EE4806601720ED49A9
:102160004860402088600020C8604FF480600861AB
:10217000084603F007FD1720FEF75AFB05462A2DF7
:1021800001D0284639E7E348C0F800A01920E1490A
:102190004860402088600020C8604FF4806008617B
:1021A000084603F0EFFC1920FEF742FB05462A2DF6
:1021B00001D0284621E706FB04F0D749086001203A
:1021C000D6490860D648C0F80090D648D64908607D
:1021D00006FB04F048604FEA0B1088600020C860DE
:1021E000086101204861084603F0F5FCCF4800680B
:1021F00002286FD13EE0D0E04FF4804003F034FD80
:10220000C0B3C5480068C01B202811D3002000902F
:1022100007E0009958F8210003F002FD0098401CE7
:10222000009000980828F4D308F12008203721E016
:10223000B9480078C01B10F0030F04D1B6480068FD
:10224000C01B800804E0B4480068C01B8008401C24
:1022500001900020009009E0D8F8000003F0E0FCB5
:102260000098401C009008F104083F1DDDE90010B3
:102270008142F1D3AE48406B40F21A310842BBD0E4
:10228000082003F0F1FC28B1082003F0F7FC042536
:102290002846B2E6022003F0E7FC28B1022003F052
:1022A000EDFC02252846A8E6102003F0DDFC28B14D
:1022B000102003F0E3FC052528469EE64FF400704D
:1022C00003F0D2FC38B14FF4007003F0D7FC0725BF
:1022D000284692E627E04FF4807003F0C5FC002802
:1022E0005BD08A48006838B188480068012803D06C
:1022F00086480068022850D10020864908600C20DA
:102300004860402088600020C8604FF48060086109
:10231000084603F037FC0C20FEF78AFA05462A2D02
:102320003BD0284669E681480068012813D1012185
:1023300044F21A3003F016FC00BF7E48006818B95A
:102340007D4800782A28F8D07B4800782A2824D0B5
:102350007948007851E675480068F0B9012140F2EB
:102360001A3003F0FFFB012003F009FC06FB04F127
:102370004846FEF7F2F900BFFEF745FA30B96D485E
:10238000006818B96C4800782A28F5D06A480078A7
:102390002A2802D0684800782FE640F2FF5003F068
:1023A0006DFC0020009002E00098401C00904FF669
:1023B000FF7100988842F7D302A8FFF78EFB05460D
:1023C00003E002A8FFF789FB05462A2D07D19DF8F7
:1023D00008000728F5D09DF808000628F1D0284607
:1023E0000BE65348406B10F4405F01D0012070476A
:1023F0000020FCE710B52A240020464908600C2084
:102400004860402088600020C8604FF48060086108
:10241000084603F0B7FB0C20FEF70AFA04462046F4
:1024200010BD2DE9FC4105460E462A240027002058
:102430000190009041484068202111EA105F03D1CB
:1024400025242046BDE8FC8139484068C0B2801C84
:102450003B49B1FBF0F00190002003F0B1FB10F01C
:10246000007F02D00E242046ECE7284800680228AE
:1024700001D16D0A760A2548006838B12348006802
:10248000012803D02148006802282DD12148056089
:10249000202020494860402088600020C8604FF418
:1024A00080600861084603F06DFB2020FEF7C0F94C
:1024B00004462A2C01D02046C4E716480660212095
:1024C00014494860402088600020C8604FF4806054
:1024D0000861084603F056FB2120FEF7A9F90446DF
:1024E0002A2C01D02046ADE700200A4908602620AA
:1024F0004860402088600020C8604FF48060086118
:10250000084603F03FFB26201CE0000028000020C6
:102510002C0000209871002034000020380000209A
:1025200048000020FFFF0F00AC71002030000020A9
:1025300000800140400000203C000020107100207D
:10254000C0D40100FEF774F904462A2C01D02046BD
:1025500078E7002700E07F1C01988742FBD368469C
:10256000FFF7BBFA044603E06846FFF7B6FA0446F5
:102570002A2C07D19DF800000728F5D09DF800000F
:102580000628F1D020465DE770B504462A260025CE
:10259000002003F015FB10F0007F02D00E2630461D
:1025A00070BD4020EA4908601020486040208860E3
:1025B0000020C8604FF480600861084603F0E2FA2A
:1025C0001020FEF735F906462A2E01D03046E7E7FF
:1025D000E04800880004DE49086037204860402059
:1025E00088600020C8604FF480600861084603F0EE
:1025F000C9FA3720FEF71CF906462A2E01D03046CC
:10260000CEE7D548D5490860402048606020886002
:102610000220C8600020086101204861084603F0DC
:10262000DAFA0020CA4908600D204860402088601E
:102630000020C8604FF480600861084603F0A2FAE9
:102640000D20FEF7F5F806462A2E01D03046A7E702
:102650000EE04FF4004003F007FB48B1002504E012
:1026600003F0DBFA44F825006D1C082DF8D3203464
:10267000BB48406B40F22A610842EAD0082003F0D0
:10268000F3FA28B1082003F0F9FA0426304687E768
:10269000022003F0E9FA28B1022003F0EFFA022643
:1026A00030467DE7202003F0DFFA28B1202003F038
:1026B000E5FA0626304673E74FF4007003F0D4FACB
:1026C00030B14FF4007003F0D9FA0726304667E7BF
:1026D00003E003F0A2FA2060241D4FF4001003F081
:1026E000C3FA0028F5D140F2FF5003F0C7FA403C8E
:1026F000002515E014F82500000634F8251001F433
:102700007F4140EA012054F8251001F47F0140EA9E
:10271000112054F8251040EA116044F825006D1C82
:10272000102DE7D330463BE770B5002400258D48D7
:102730000068012867D1C00303F0A3FAA8B100BF65
:1027400006E003F06AFA8849096841F82400641C2D
:10275000082CF6D3844800682030834908608348F9
:1027600000682030814908604DE04FF4804003F05C
:1027700088FA002847D07E4800687C490968401ADA
:1027800020282BD27A48007878490968401A10F03E
:10279000030F06D17648006874490968401A80081A
:1027A00006E07348006871490968401A8008401CB7
:1027B000054600240FE06F490968086803F030FA05
:1027C000641C6C480068001D6A490860674800681E
:1027D000001D66490860AC42EDD314E0002406E019
:1027E0006449096851F8240003F01AFA641C082CA3
:1027F000F6D36048006820305E4908605B48006896
:1028000020305A4908604FF4807003F03AFAD8B388
:1028100054480068D0B10EE003F0FFF9524909684E
:10282000086051480068001D4F4908604F48006823
:10283000001D4E4908604FF4001003F015FA28B14E
:102840004A4800684A4909688842E5D34A4800680E
:10285000012804D1FFF7CEFD4849087002E02A2084
:10286000464908704FF4807003F015FA00214CF2CD
:102870003A3003F077F901204149086000203B49D4
:1028800008603E48007870BDFFE7022003F0F9F9C8
:1028900070B1022003F0FFF900214CF23A3003F04E
:1028A00061F9002031490860022034490870EAE7E4
:1028B000082003F0E6F970B1082003F0ECF90021DC
:1028C0004CF23A3003F04EF9002028490860042009
:1028D0002A490870D7E7202003F0D3F970B12020EF
:1028E00003F0D9F900214CF23A3003F03BF9002013
:1028F0001E490860062021490870C4E7102003F033
:10290000C0F970B1102003F0C6F900214CF23A3042
:1029100003F028F9002015490860052017490870C0
:10292000B1E74FF4007003F0ACF978B14FF40070E8
:1029300003F0B1F900214CF23A3003F013F9002012
:102940000A49086007200D4908709CE72A209AE789
:10295000987100202C000020FFFF0F00AC710020B8
:1029600000800140300000204C0000204400002086
:102970003400002048000020380000203C000020E7
:102980004000002010B5FDF719FE0121084602F0B5
:10299000D1FD10BD08B501217C2002F0CBFD202027
:1029A000ADF8000010208DF8030003208DF8020020
:1029B0006946D44802F008FB08BD08B503208DF82D
:1029C00002002020ADF8000048208DF80300694681
:1029D000CD4802F0F9FA0420ADF8000048208DF847
:1029E00003006946C84802F0EFFA0820ADF800007D
:1029F00048208DF803006946C34802F0E5FA08BD97
:102A000000B587B00121080302F094FDE020ADF885
:102A1000180003208DF81A0018208DF81B0006A955
:102A2000BA4802F0D1FA8020ADF8180003208DF8E2
:102A30001A0010208DF81B0006A9B24802F0C4FA53
:102A40001020ADF8180006A9AF4802F0BDFA4FF407
:102A50008050ADF8180006A9AA4802F0B5FA102077
:102A6000ADF8180006A9A94802F0AEFA1021A64850
:102A700002F055FB4FF48051A24802F050FB1021A8
:102A8000A24802F04CFB0020ADF804004FF4827025
:102A9000ADF806000020ADF808000220ADF80A00ED
:102AA0000120ADF80C004002ADF80E001020ADF88A
:102AB00010000020ADF812000720ADF8140001A9A5
:102AC000934803F04BFA0121914803F0ECFA80217E
:102AD0008C4802F024FB10218C4802F020FB07B048
:102AE00000BD10B5FFF74EFF02F03AF9FFF752FFB5
:102AF000FFF763FFFFF784FF08F074FA10BD0EB50F
:102B00004FF4A06002F082FF17208DF8080000202B
:102B10008DF8090001208DF80A008DF80B0002A83D
:102B200002F079FF08208DF8080000208DF80900D8
:102B300002208DF80A0001208DF80B0002A802F097
:102B40006AFF09208DF8080000208DF809008DF833
:102B50000A0001208DF80B0002A802F05CFF05219D
:102B6000022002F045FB0221084602F041FB03214E
:102B7000022002F03DFB2020009000208DF8040090
:102B80000C208DF8050001208DF80600684603F042
:102B900053FB0420009000208DF804000C208DF8D9
:102BA000050001208DF80600684603F045FB08206B
:102BB000009000208DF804000C208DF80500012005
:102BC0008DF80600684603F037FB0EBD70B586B081
:102BD00001A802F042FCC8210298B0FBF1F42146A2
:102BE000B1F1807F00D31DE021F07F40401E4FF007
:102BF000E022506150170F22002807DA13071E0E3B
:102C0000444B00F00F052D1F5E5503E013071D0E0A
:102C1000414B1D5400BF00204FF0E022906107207F
:102C2000106100BF06B070BD70B50446002500BF3E
:102C30000221374803F0BBFA0028F9D02146344876
:102C400003F062FA00BF0121314803F0B0FA002816
:102C5000F9D02F4803F05AFAC5B2284670BD0021BA
:102C600000E0491C8142FCD3704710B5002480214C
:102C7000244802F056FA0A20FFF7F1FFD020FFF7B0
:102C8000D3FF0A20FFF7EBFF0020FFF7CDFF04463C
:102C90004FF6FF7000EA04240020FFF7C5FF204430
:102CA00084B20A20FFF7DBFF8021164802F037FAD2
:102CB000E410204610BD10B500248021114802F018
:102CC00030FA0A20FFF7CBFF9020FFF7ADFF0A2074
:102CD000FFF7C5FF0020FFF7A7FF04464FF6FF7080
:102CE00000EA04240020FFF79FFF204484B20A205A
:102CF000FFF7B5FF8021034802F011FAE4102046E7
:102D000010BD0000000C014000100140000801400F
:102D10000030014018ED00E000E400E008B50121BA
:102D2000282002F007FC2020ADF8000010208DF8CC
:102D3000030003208DF802006946094802F044F9B7
:102D40002021074802F0EBF94020ADF80000694669
:102D5000044802F039F92021024802F0E0F908BDE8
:102D6000000C01400014014030B50B4603EB002479
:102D7000A1B2642491FBF4F430341470642491FB08
:102D8000F4F504FB15140A2594FBF5F43034547063
:102D90000A2491FBF4F504FB1514303494700024DC
:102DA000D47030BD70B504460D46002608F0C0F85A
:102DB00006462946204602F061FD00BF4021F54845
:102DC00002F0CAFD0028F9D0304608F0B5F870BD11
:102DD0002DE9F04106460F460025EF484671877100
:102DE000002404E0EC48005D284485B2641C072CF4
:102DF000F8D32846E91705EB1161090AE64AD171B3
:102E0000E91705EB11610912A5EB012111720024EC
:102E100005E0E248015DDF48FFF7C4FF641C062CB3
:102E2000F7D3002405E0DC48015DDA48FFF7BAFF7C
:102E3000641C092CF7D3BDE8F0812DE9F84307465F
:102E4000884600241CE02546E21704EB12621212A9
:102E5000A4EB0222D1B2A146E21704EB1262C2F344
:102E60000720FFF7B5FF6A460021CD48006806F04D
:102E70003EFD0646707A0C2800D102E0601C84B248
:102E8000E1E700BF2046E11704EB1161090A397040
:102E9000E11704EB11610912A4EB012188F800107D
:102EA000BDE8F88310B5002406E0BC48015DB948D0
:102EB000FFF778FF601CC4B2062CF6DB002406E0A6
:102EC000B848015DB348FFF76DFF601CC4B2062C23
:102ED000F6DB10BD10B5002406E0B048015DAD483A
:102EE000FFF760FF601CC4B2062CF6DB002406E08E
:102EF000AD48015DA748FFF755FF601CC4B2072C21
:102F0000F6DB10BD10B5002406E0A448015DA14821
:102F1000FFF748FF601CC4B2062CF6DB002406E075
:102F2000A248015D9B48FFF73DFF601CC4B2072C1F
:102F3000F6DB10BD10B5002406E09848015D954809
:102F4000FFF730FF601CC4B2062CF6DB002406E05D
:102F50009748015D8F48FFF725FF601CC4B2062C1F
:102F6000F6DB10BD10B5002406E08C48015D8948F1
:102F7000FFF718FF601CC4B2062CF6DB002406E045
:102F80008C48015D8348FFF70DFF601CC4B2062C1E
:102F9000F6DB10BD10B5002406E08048015D7D48D9
:102FA000FFF700FF601CC4B2062CF6DB002406E02D
:102FB0008148015D7748FFF7F5FE601CC4B2062C1E
:102FC000F6DB10BD38B5054600200090280A7B4985
:102FD00008714D71002406E07848005D00990844AE
:102FE0000090601CC4B2082CF6DB0098000A7349FC
:102FF000087200984872002406E06848015D654840
:10300000FFF7D0FE601CC4B2062CF6DB002406E0FD
:103010006A48015D5F48FFF7C5FE601CC4B20A2C18
:10302000F6DB38BD10B5002405E05C48015D594869
:10303000FFF7B8FE641C062CF7D3002405E06048B7
:10304000015D5448FFF7AEFE641C062CF7D310BD9B
:1030500010B5002406E05148015D4E48FFF7A2FE7E
:10306000601CC4B2062CF6DB002406E05548015D66
:103070004848FFF797FE601CC4B20B2CF6DB10BD6E
:1030800010B5002406E04548015D4248FFF78AFE7E
:10309000601CC4B2062CF6DB002406E04A48015D41
:1030A0003C48FFF77FFE601CC4B2072CF6DB10BD66
:1030B0002DE9F04106460F460025444846718771C8
:1030C000002404E04148005D0544601CC4B2072CA4
:1030D000F8DB280A3D49C8710D72002406E02F482C
:1030E000015D2C48FFF75EFE601CC4B2062CF6DBC7
:1030F000002406E03548015D2648FFF753FE601CBA
:10310000C4B2092CF6DBBDE8F08170B50446002599
:1031100007F00EFF05460F2C3AD2DFE804F0080C4A
:103120001014181C2024282C303438E5E90028A07D
:1031300013F02EF9E4E028A013F02AF9E0E02AA029
:1031400013F026F9DCE02BA013F022F9D8E02EA032
:1031500013F01EF9D4E031A013F01AF9D0E034A036
:1031600013F016F9CCE039A013F012F9C8E03FA033
:1031700013F00EF9C4E046A013F00AF9C0E04BA02A
:1031800013F006F9BCE052A013F002F9B8E0A7E092
:10319000B2E0ADE000440040940000205000002068
:1031A0000400002056000020730000207A00002058
:1031B0005C0000208100002087000020A600002085
:1031C00062000020680000208D0000209D0000208B
:1031D0004F4B0D0A000000007061636B6167652052
:1031E0006572726F720D0A006E6F2066696E676598
:1031F000720D0A00736176652066696E67657220DC
:103200006572726F720D0A0066696E676572206979
:103210007320746F6F206472790D0A0066696E679F
:10322000657220697320746F6F207765740D0A00D2
:1032300066696E67657220697320746F6F206469B8
:10324000736F726465720D0A0000000066696E6734
:1032500065722773206172656120697320746F6FD6
:1032600020736D616C6C0D0A00000000446F657383
:10327000206E6F74206D61746368207468652066C9
:10328000696E6765727072696E740D0A00000000E5
:103290004E6F20736561726368207468652066698B
:1032A0006E6765727072696E740D0A0053796E7480
:1032B0006865736973206F6620656967656E7661FE
:1032C0006C756573206572726F720D0A00000000E4
:1032D0004F7574206F662072616E67650D0A00007D
:1032E000CAA013F055F80BE0D2A013F051F807E094
:1032F000D3A013F04DF803E0D4A013F049F800BFB9
:1033000000BF284607F018FE70BDF0B589B005462D
:1033100000270026142101A813F04BFA6D1C6D1C28
:103320006D1C08E0287801A98855701CC6B26D1C78
:10333000132E00DB02E028782328F3D100BF002001
:103340008DF8170000BFFFF7ADFD06AA0021C248A7
:10335000006806F0CCFA04464FF4FA7300221146D6
:10336000104607F0E3FC607AFFF7CFFE607A002892
:10337000E9D1FFF7AFFD06AA0021B748006806F0C3
:10338000B6FA0446607AFFF7C0FE00230122194610
:10339000184607F0CBFC07F0CBFD0746AFA012F0B4
:1033A000F7FF384607F0C8FD00BFFFF77BFD06AA10
:1033B0000021A948006806F09AFA04464FF4FA730F
:1033C00000221146104607F0B1FC607AFFF79DFE1F
:1033D000607A0028E9D1FFF795FD06AA00219E48F2
:1033E000006806F084FA0446FFF7A4FD06AA00214F
:1033F0009948006806F07BFA0446607A10B1002014
:1034000009B0F0BDFFF7AEFD06AA002192480068A2
:1034100006F06DFA044607A908A8FFF70EFD9DF80F
:103420001C109DF82000FFF743FE06AA00218A48E1
:10343000006806F05CFA0446607AD8B96A469DF8DE
:103440001C109DF82000FFF78FFC9DF81C109DF8C4
:10345000202001EB022188B201A900F09FFE07F0B5
:1034600067FD074601AA694680A012F091FF384621
:1034700007F062FD4FF4FA7300221146104607F080
:1034800055FC0120BCE72DE9FC4104460027E0780B
:103490008DF8040020798DF8050060798DF806001C
:1034A00000208DF8070001A813F046F885B22846E1
:1034B000FFF788FD6A4600216748006806F017FAA2
:1034C0000646707A68B9284600F095FE07F030FD90
:1034D000074601A968A012F05BFF384607F02CFDF3
:1034E00002E00020BDE8FC810120FBE770B586B05A
:1034F0000026FFF7D7FC05AA64215748006806F0AC
:10350000F6F90446607A10B1002006B070BDFFF7EE
:10351000F9FC05AA00215048006806F0E8F90446C5
:10352000FFF796FD05AA00214B48006806F0DFF979
:103530000446607AFFF7E9FD607A002828D1E07A36
:10354000A17A00EB01204E490860607B217B00EBF3
:1035500001254B49098888B2694600F030FD07F023
:10356000E7FC06464648016846A012F011FF2946CE
:1035700049A012F00DFF69464EA012F009FF304637
:1035800007F0DAFC3E495148006806F06BFA01E0AA
:103590000020BAE70120B8E7F8B5054600BFFFF7FD
:1035A00081FC6A4600212C48006806F0A0F9044618
:1035B0004FF4FA7300221146104607F0B7FB607A09
:1035C0000028ECD1607A08B10020F8BDFFF79AFC22
:1035D0006A4600212048006806F089F90446FFF792
:1035E00037FD6A4600211C48006806F080F9044651
:1035F000607A40B9E07AA17A00EB012086B2AE424F
:1036000001D10120E1E70020DFE70000726561647D
:103610002066696E6765727072696E74206D617084
:1036200073206461746162617365206572726F7288
:103630000D0A00006572726F72310D0A0000000001
:103640006572726F72320D0A000000004572726F6F
:1036500072416C6C0D0A000004000020D4D9B4CE75
:10366000B0B4CFC2D6B8CEC60D0A00003031232583
:1036700073232573200D0A003032232573230000A5
:10368000B000002066696E67657220696420697306
:10369000202564200D0A000066696E676572204D62
:1036A0006174636853636F726520697320256420B9
:1036B0000D0A000066696E676572206E616D652097
:1036C0006973203A25730D0A0000000008000020ED
:1036D00008B54FF4E06002F099F926208DF800005B
:1036E00000208DF801008DF8020001208DF8030004
:1036F000684602F090F908BD08B50121042001F0E8
:1037000019FF0121480401F022FF0420ADF8000058
:1037100003208DF8020018208DF803006946B54893
:1037200001F052FC0820ADF8000004208DF80300E1
:103730006946B04801F048FCFFF7CAFF08BD1FB555
:103740000446FFF7D9FF00940020ADF804004FF4C1
:103750000050ADF806000020ADF80800ADF80C00F0
:103760000C20ADF80A006946A34801F08EFF012243
:1037700040F22551A04802F020F8012240F22771C2
:103780009D4802F01AF801219B4802F00AF81FBD7B
:10379000F0B503460D461646002729460A2E03D0EB
:1037A000002008702846F0BD33B9302001F8010B25
:1037B000002008702846F6E7002B03DA2D2001F8D8
:1037C000010B5B4242F210720DE093FBF2F404B97C
:1037D00037B104F1300001F8010B04FB123301276B
:1037E0000A2092FBF0F2002AEFDC00200870284645
:1037F000D9E70FB430B585B009A8009073E00898F8
:1038000000785C281CD10898401C089000786E282D
:1038100009D072280FD10D21774802F02FF80898AF
:10382000401C08900BE00A21734802F027F8089822
:10383000401C089003E00898401C089000BF4BE033
:1038400008980078252840D10898401C08900078F6
:10385000642818D0732833D1009810C800900BE06A
:103860002178654802F00AF800BF4021624802F062
:1038700073F80028F9D0641C20780028F0D108984B
:10388000401C089020E0009820C800900A2201A95E
:103890002846FFF77DFF01AC0BE02178564801F088
:1038A000EDFF00BF4021544802F056F80028F9D03F
:1038B000641C20780028F0D10898401C089003E090
:1038C0000898401C089000BF06E0089810F8011BFB
:1038D0000890494801F0D2FF00BF4021464802F05D
:1038E0003BF80028F9D008980078002887D105B067
:1038F00030BC5DF814FB70B504460D4600260DE0A3
:1039000014F8011B3C4801F0B9FF00BF40213A48C0
:1039100002F022F80028F9D0701CC6B2AE42EFDBEC
:1039200070BD70B505F027F840F22551324802F01D
:1039300029F800284FD0304801F0A4FFC1B22F4829
:103940000578681C2D4A10702D48415510460078A6
:10395000401E2B49095C10460078401E294A105C25
:10396000814206D025480078062802DC0020234941
:1039700008702248007808282DDB2148007A093099
:103980001E490978884226D1062408E01C48005DBB
:103990001D49098808441C490880601CC4B21748A6
:1039A0000078401EA042F1DC14480078401E144903
:1039B000085C15490988884208D1104800781049E8
:1039C00081F82D001148006806F04CF800200B49E2
:1039D00008700D49088040F22771074801F0D2FFB6
:1039E00028B1002240F22771034801F0E6FE04F0FE
:1039F000DDFF70BD0008014000440040B60000201B
:103A0000C471002050000020B800002004000020F5
:103A100010B5FDF713FDF649002003F04BFF08B188
:103A2000002010BD0120FCE730B58BB00546002416
:103A30000122F049F04803F050FF10B100200BB014
:103A400030BD18E004EB8400C100EB4804F047FAF5
:103A5000EA4B282201A9E84803F0ECFF20B1E64830
:103A600004F032FA0020EAE79DF82B00012801D08B
:103A70002C7001E0641CE5E700BFDF4804F024FA85
:103A80000120DCE7F8B504460D460026E0788DF805
:103A9000000020798DF8010060798DF802006846F9
:103AA00012F04AFD2880E0798DF80000207A8DF828
:103AB0000100607A8DF80200684612F03DFD6880D2
:103AC000E07A8DF80000207B8DF80100607B8DF896
:103AD0000200684612F030FDA880E07B8DF80000FF
:103AE000207C8DF80100607C8DF80200684612F0A1
:103AF00023FDE880133406E0217805F108008155A4
:103B0000701CC6B2641C20782328F5D1002105F171
:103B100008008155012085F82700F8BD10B58AB04E
:103B200000240222B349B44803F0D7FE10B10020AC
:103B30000AB010BD00208DF8270000240CE0AF4B28
:103B400028226946AC4804F063F820B1AA4804F082
:103B5000BBF90020ECE7641C642CF0DBA64804F001
:103B6000B3F90120E4E730B58BB005461122A14935
:103B7000A14803F0B2FE10B100200BB030BD00240C
:103B800033E09E4B282201A99B4803F053FF20B14C
:103B9000994804F099F90020EFE79DF82B000128DF
:103BA00021D1BDF8041096A012F0F2FBBDF806106A
:103BB00097A012F0EDFBBDF8081099A012F0E8FBF9
:103BC000BDF80A109AA012F0E3FB03A99CA012F022
:103BD000DFFB9DF82B109DA012F0DAFB9DF82A1058
:103BE0009DA012F0D5FB601CC4B2AC42C9DB824878
:103BF00004F06AF90120C0E730B58BB00446E078E4
:103C00008DF8000020798DF8010060798DF80200B0
:103C100000208DF80300684612F08EFC85B2022267
:103C20007449754803F059FE10B100200BB030BD47
:103C300000208DF82B0005EB8500C1006E4804F0D4
:103C40004EF96E4B282201A96B4803F0E1FF20B129
:103C5000694804F039F90020E8E7674804F034F9CE
:103C6000642095FBF0F03030C0B28DF80000642085
:103C700095FBF0F100FB11500A2190FBF1F0303080
:103C8000C0B28DF80100642095FBF0F100FB1150EB
:103C90000A2190FBF1F201FB12003030C0B28DF826
:103CA000020000208DF8030069466EA012F070FB40
:103CB0000120BBE730B58DB004460D4602224D49C8
:103CC0004D4803F00AFE10B100200DB030BD0020B9
:103CD0008DF8330004EB8400C100474804F0FFF87E
:103CE000464B282203A9444803F092FF20B14248E2
:103CF00004F0EAF80020E8E73F4804F0E5F8642023
:103D000094FBF0F03030C0B28DF80800642094FBD2
:103D1000F0F100FB11400A2190FBF1F03030C0B20D
:103D20008DF80900642094FBF0F100FB11400A219A
:103D300090FBF1F201FB12003030C0B28DF80A00A6
:103D400000208DF80B00642095FBF0F03030C0B2FD
:103D50008DF80400642095FBF0F100FB11500A215E
:103D600090FBF1F03030C0B28DF80500642095FB77
:103D7000F0F100FB11500A2190FBF1F201FB12005F
:103D80003030C0B28DF8060000208DF8070001AA7F
:103D900002A937A012F0FCFA012096E730B58BB0EB
:103DA000044669462046FFF76DFE133400E0641CAC
:103DB00020782328FBD1641C20788DF828006078B7
:103DC0008DF82900A0788DF82A0000208DF82B00AE
:103DD0000AA812F0B1FBC5B28DF82650022205499F
:103DE000054803F07AFD10B100200BB030BD45E06E
:103DF000F4760020CC00002024790020DC00002094
:103E00000D0A61646D696E3A2564200D0A00000098
:103E1000667269656E64313A307825580D0A000083
:103E2000667269656E64323A307825580D0A000072
:103E3000667269656E64333A307825580D0A000061
:103E40007468696E67733A25730D0A007374617440
:103E500075733A25640D0A00506F737449643A25EE
:103E6000640D0A003035232573230D0A000000007D
:103E70003036232573232573230D0A0005EB8500B7
:103E8000C100F74804F02BF8F64B28226946F448A5
:103E900003F0BEFE28B1F24804F016F800200BB083
:103EA00030BDEF4804F010F8642095FBF0F030309E
:103EB000C0B28DF82800642095FBF0F100FB115092
:103EC0000A2190FBF1F03030C0B28DF82900642057
:103ED00095FBF0F100FB11500A2190FBF1F201FB80
:103EE00012003030C0B28DF82A0000208DF82B006F
:103EF0000AA9DDA012F04CFA0120D0E730B58BB052
:103F00000446002501A92046FFF7BCFD0DF12A005B
:103F1000FFF78AFD07F00CF805460222D549D04884
:103F200003F0DBFC10B100200BB030BD9DF82A007F
:103F300000EB8000C100CA4803F0D1FFC94B282222
:103F400001A9C74803F064FE20B1C54803F0BCFFD7
:103F50000020E9E7C24803F0B7FF9DF82A0064217A
:103F600090FBF1F03030C0B28DF800009DF82A00CF
:103F700090FBF1F201FB12000A2190FBF1F03030CE
:103F8000C0B28DF801009DF82A00642190FBF1F287
:103F900001FB12000A2190FBF1F201FB120030300C
:103FA000C0B28DF8020000208DF803006946B2A06F
:103FB00012F0EEF9284606F0BFFF0120B4E730B555
:103FC0008BB004460D4600BF1122AE49A44803F051
:103FD00084FC10B100200BB030BD262004FB00F1A2
:103FE0009F4803F07CFF9F4B262201A99C4803F0C9
:103FF00021FD20B19A4803F067FF0020EBE79DF810
:10400000240020B9964803F05FFF0020E3E79448BE
:1040100003F05AFFBDF82600A04204D101A92846AA
:1040200012F0C3FA01E00020D5E70120D3E770B514
:104030008AB00546002600240BE0002004EB840132
:10404000C1EB8411904A02EB410181F87400601CBD
:10405000C4B20A2CF1DB01228649814803F03DFC01
:1040600010B100200AB070BD002437E07D4B28223B
:1040700069467B4803F0DEFC20B1794803F024FF59
:104080000020EFE79DF8270030B3BDF80000A842FC
:104090000BD0BDF80200A84207D0BDF80400A8422A
:1040A00003D0BDF80600A84216D106EB8601C1EB8D
:1040B0008611754A02EB41002822694612F0B8FACF
:1040C000012006EB8601C1EB86116F4A02EB41012C
:1040D00081F87400701CC6B2601CC4B2642CC5DBCD
:1040E0005F4803F0F1FE002428E004EB8400C0EBFD
:1040F0008410654901EB400090F87400E0B104EBD6
:104100008402C2EB84120B4603EB420202F1280147
:1041100004EB8402C2EB841233F81200FFF74FFF66
:1041200004EB8400C0EB8410574A02EB400000F11E
:104130004E012846FFF743FF601CC4B20A2CD4DBB3
:10414000514890F8740008B900208BE7012089E7F6
:1041500010B58AB0002402224A49414803F0BDFB51
:1041600010B100200AB010BD00208DF820000024FE
:104170000CE03C4B26226946394803F049FD20B14A
:10418000374803F0A1FE0020ECE7641CB4F57A7F09
:10419000EFDB334803F098FE0120E3E730B58BB046
:1041A00004460D46022237492D4803F096FB10B114
:1041B00000200BB030BD01208DF82400294601A855
:1041C00012F0F3F9ADF82640262004FB00F1244854
:1041D00003F085FE234B262201A9214803F018FD98
:1041E00020B11F4803F070FE0020E2E71C4803F0F6
:1041F0006BFE0120DDE730B58BB0044600250222BE
:104200002049174803F069FB10B100200BB030BD06
:1042100000208DF82400262004FB00F1104803F054
:104220005EFE104B262201A90D4803F0F1FC20B1DF
:104230000B4803F049FE0020E8E7094803F044FE7C
:104240000120E3E730B58BB0054601220D49044853
:1042500003F043FB10B100200BB030BD00242FE071
:1042600024790020DC0000203034232573230D0A3C
:1042700000000000CC0000203033232573230D0AFA
:1042800000000000BC00002058720020104B2622C5
:1042900001A9104803F0CEFB20B10E4803F014FE34
:1042A0000020D9E79DF8240040B1BDF826100AA0EF
:1042B00012F06EF801A90EA012F06AF8601CC4B2E8
:1042C000AC42E3DB034803F0FFFD0120C4E700003C
:1042D000DC000020247900200D0A706572736F6E77
:1042E00027732069642069733A25640D0A00000071
:1042F000706572736F6E2773206E616D65206973D0
:10430000203A25730D0A000070B50446B4F9045034
:10431000FE48008800EB8001C1EB8010FC4901EBF6
:10432000400090F8270048B94FF4C87128460CF0B7
:104330004FFB0646F7A10BF061F870BD4FF4C87152
:1043400028460CF045FB0646F7A10BF057F84FF452
:10435000C87128460CF03CFB0646F8A10BF0D6F8D5
:10436000FC480088FFF718F9002838D04FF4C871CE
:1043700028460CF02DFB0646F7A10BF03FF8E34969
:10438000098801EB8102C2EB8111E14A02EB410194
:1043900091F82600EF490988FFF78CFCA8B14FF48B
:1043A000C87128460CF014FB0646F3A10BF0AEF8DA
:1043B0000020D649098801EB8102C2EB8111D44A61
:1043C00002EB410181F8270013E04FF4C871284641
:1043D0000CF0FEFA0646EFA10BF098F809E04FF456
:1043E000C87128460CF0F4FA0646F0A10BF006F866
:1043F000A3E700BFA1E770B50446B4F90450C34871
:10440000008800280EDDC1480088401EBF49088092
:104410004FF4C87128460CF0DBFA0646DCA10AF01E
:10442000EDFF08E04FF4C87128460CF0D1FA0646BB
:10443000E6A10AF0E3FF70BD70B50446B4F904507C
:10444000B2480088401C00EB8001C1EB8010B049ED
:1044500001EB400090F8740070B1AC480088401C3B
:10446000AA4908804FF4C87128460CF0B1FA0646F4
:10447000C7A10AF0C3FF08E04FF4C87128460CF04A
:10448000A7FA0646D7A10AF0B9FF70BD2DE9F041A1
:104490000546B5F9046000209C4908804FF4C871B6
:1044A00030460CF095FA0746D2A10AF0A7FF4FF468
:1044B000907130460CF08CFA0746002109F0FEF8A6
:1044C00040F2211130460CF083FA0746002109F032
:1044D000F5F84FF4C87130460CF07AFA0746ACA1F3
:1044E0000AF08CFF00240BE0002004EB8401C1EBF8
:1044F0008411874A02EB410181F87400601CC4B248
:104500000A2CF1DB4FF4807130460CF061FA07465B
:104510009FA109F04FFC40F2011130460CF058FA0F
:1045200007469BA109F046FC4FF4817130460CF020
:104530004FFA074696A109F03DFC40F203113046C0
:104540000CF046FA074692A109F034FC4FF4B8711A
:1045500030460CF03DFA07460CF01AFA40F27111A1
:1045600030460CF035FA07460CF012FA4FF4B971E8
:1045700030460CF02DFA07460CF00AFA40F273119F
:1045800030460CF025FA07460CF002FA0E2006F031
:1045900042FABDE8F08170B50446B4F90450002039
:1045A00008F032FBAC2340F201124FF0FF3110460D
:1045B00008F094F9002008F027FBAC2340F28912A0
:1045C00019466FF0020008F089F970BD70B5044615
:1045D000B4F904508948058000220121284609F0D9
:1045E0006AFD01221146284609F08BFE02220121B4
:1045F000284609F0C8FE4FF4B07128460CF0E8F9DF
:1046000006467F490BF0F0FA4FF4B07128460CF0E3
:10461000DFF906460E210BF0F5FA4FF480712846BB
:104620000CF0D6F90646774A002109F099FB4FF4C1
:10463000807128460CF0CCF90646714909F080FBE0
:104640004FF4B87128460CF0C3F906466C4908F0DF
:104650008CFF4FF4B87128460CF0BAF906460CF0FE
:1046600097F940F2711128460CF0B2F906466449F8
:1046700008F07BFF40F2711128460CF0A9F90646BC
:104680000CF086F94FF4B97128460CF0A1F90646F2
:104690005B4908F06AFF4FF4B97128460CF098F9AD
:1046A00006460CF075F940F2731128460CF090F9AB
:1046B0000646534908F059FF40F2731128460CF0A2
:1046C00087F906460CF064F940F2011128460CF017
:1046D0007FF906464B4A002109F042FB40F20111E6
:1046E00028460CF075F90646454909F029FB4FF4B8
:1046F000817128460CF06CF90646424A002109F007
:104700002FFB4FF4817128467EE00000E20000207C
:104710005872002068617665206265656E2074615C
:104720006B656E21210D0A00636F6E6669726D20E4
:1047300066696E67657221210D0A0000706C656103
:10474000736520706C6163652066696E6765720DC4
:104750000A000000E000002046696E676572707212
:10476000696E74206D61746368696E672073756328
:10477000636573730D0A0000526563656976652091
:1047800064656C69766572792073756363657373AC
:1047900000000000526563656976652064656C6998
:1047A00076657279206661696C650000446F657397
:1047B000206E6F74206D6174636820746865206674
:1047C000696E6765727072696E74000074686973EF
:1047D0002069732074686520666972737420706F35
:1047E000737400006E6F206D6F726520706F73744C
:1047F0000000000072657475726E0000E400002015
:104800009C800108F5F5F5000CF0E2F80646F94940
:1048100009F096FA40F2611128460CF0D9F80646E4
:10482000F4490BF0E1F940F2611128460CF0D0F8A0
:1048300006460E210BF0E6F94FF4B17128460CF054
:10484000C7F80646EB490BF0CFF94FF4B171284693
:104850000CF0BEF806460E210BF0D4F940F26311BD
:1048600028460CF0B5F80646E2490BF0BDF940F2D7
:10487000631128460CF0ACF806460E210BF0C2F985
:1048800040F2031128460CF0A3F80646DA4A00214C
:1048900009F066FA40F2031128460CF099F8064632
:1048A000D44909F04DFA4FF4C87128460CF090F83D
:1048B000064601210AF00FFF4FF4C87128460CF09C
:1048C00087F8064601210AF003FF4FF4C871284615
:1048D0000CF07EF806460CF05BF84FF49071284619
:1048E0000CF076F80646C34908F0D7FE4FF49071F5
:1048F00028460CF06DF80646C0A108F0F2FE4FF411
:10490000907128460CF064F806460CF041F840F22D
:10491000211128460CF05CF80646B64908F0BDFEA9
:1049200040F2211128460CF053F80646B5A108F0D4
:10493000D8FE40F2211128460CF04AF806460CF049
:1049400027F84FF4B27128460CF042F80646A94900
:104950000BF04AF940F2651128460CF039F806468A
:10496000A4490BF041F94FF4C87128460CF030F817
:10497000064664210AF0A7FF70BDFEB50446A348B1
:10498000B0F9005000262088A1490880A14800887D
:1049900000EB8001C1EB80109F4901EB400090F8D3
:1049A0007400002872D04FF4807128460CF010F883
:1049B00007469848008800EB8002C2EB8010964AB8
:1049C00002EB400000F14E01384609F0F3F940F2E5
:1049D000011128460BF0FCFF07468E48008800EBCB
:1049E0008002C2EB80108C4A02EB400000F108010B
:1049F000384609F0DFF98749098801EB8102C2EBEB
:104A00008111854A02EB410191F826000A2269468C
:104A1000FEF7BEFE4FF4817128460BF0D9FF074622
:104A2000694609F0C7F940F2031128460BF0D0FFA0
:104A300007467848008800EB8002C2EB8010764A77
:104A400002EB400000F12801384609F0B3F9714843
:104A5000008800EB8001C1EB80106F4901EB400042
:104A600090F8270098B14FF4907128460BF0B0FFF2
:104A70000746012108F022FE40F2211128460BF0E2
:104A8000A7FF0746002108F019FE12E038E040F2C7
:104A9000211128460BF09CFF0746012108F00EFE6D
:104AA0004FF4907128460BF093FF0746002108F061
:104AB00005FE4FF4B87128460BF08AFF07460BF04D
:104AC00065FF40F2711128460BF082FF07460BF09C
:104AD0005DFF4FF4B97128460BF07AFF07460BF0E3
:104AE00055FF40F2731128460BF072FF07460BF09A
:104AF0004DFF06F01DFA0646304606F01DFA07E0A7
:104B000040F2711128460BF063FF07460BF040FF9F
:104B1000FEBDF8B50546B5F9047028680E280ED01C
:104B20000F2804D01E2806D0262878D119E0284660
:104B3000FFF731FD77E02846FFF748FD73E0A868EE
:104B400000680D2806D01B2809D10121384608F03D
:104B50002FFE04E00021384608F02AFE00BF00BF07
:104B600061E0B5F906000BF03AFF0646AC6840F28A
:104B70007111701A8E4223D007DC012E0AD0022E4A
:104B80000FD0B6F5B87F33D112E0012820D002282B
:104B90002ED125E0022C03D10021384608F008FE72
:104BA00026E0022C03D10021384608F001FE1FE068
:104BB000012C03D12846FFF71EFC00BF00BF17E001
:104BC000012C03D12846FFF79FFB00BF00BF0FE079
:104BD000012C03D12846FFF72FFC00BF00BF07E0E0
:104BE000012C03D12846FFF751FC00BF00BF00BFD6
:104BF00000BF18E09C800108F5F5F50056616C696E
:104C000064000000496E76616C696400E400002075
:104C1000E0000020E200002058720020FFE7284654
:104C20000BF0CAFD00BF00BF0D4800880090684629
:104C3000FFF7A3FEF8BD1CB508F0CFF86FF07F407A
:104C40000BF0ECFE04200BF0D3FE08E000200090F7
:104C50000346044A12210190034808F0C9FDF5E714
:104C6000E0000020134B00085C6C010810B503F055
:104C700082FE03F0C6FF03F099FE10BD10B56FF081
:104C8000040000F013FF314800683149B0FBF1F037
:104C9000304908702D4800682D49B0FBF1F441F20D
:104CA0008830444305202C4908804FF0E0200069FB
:104CB00040F002004FF0E0210861084644610069BD
:104CC00040F00100086110BD70B5034600224FF0AE
:104CD000E02675691F4E367803FB06F400BF4FF0DF
:104CE000E026B16910E04FF0E026B06988420BD0B1
:104CF000884202D20E1A324402E02E1A0E44324486
:104D00000146A24200D300E0EDE700BF70BD70B5E0
:104D1000044612480078012811D10F4800888442C7
:104D200006DB0D48008894FBF0F5284605F0CCFF23
:104D30000948008894FBF0F100FB114084B24FF465
:104D40007A7104FB01F0FFF7BFFF70BD1400002073
:104D500000127A00E6000020E80000203601002062
:104D600010B54FF4A06000F051FE10BD014600BF29
:104D7000704700BF4F4A128812F0400FFAD0C2B2FB
:104D80004C4B1B1D1A80704710B586B0044601219C
:104D900044F2040000F0CEFB4FF40070ADF81400B4
:104DA00003208DF8160018208DF8170005A9424839
:104DB00000F00AF94FF48060ADF8140004208DF87B
:104DC000170005A93C4800F0FFF825208DF80000E9
:104DD00003208DF801008DF8020001208DF80300FA
:104DE000684600F018FE01940020ADF80800ADF808
:104DF0000A00ADF80C00ADF810000C20ADF80E0064
:104E000001A92C4800F041FC012240F2255129481B
:104E100000F0D3FC0121274800F0C3FC06B010BD10
:104E200010B503F0A8FD40F22551224800F0AAFD7C
:104E300000283CD01F4800F025FDC4B21F48008860
:104E400010F4004F33D11D48008810F4804F14D067
:104E50000A2C03D000201949088028E01748008850
:104E600040F400401549088015491648006804F0D0
:104E7000F9FD00201149088019E00D2C06D10F48DA
:104E8000008840F480400D49088010E00B480088FD
:104E9000C0F30D000A490C5408480088401C07491B
:104EA000088008460088C72801DD0020088003F03C
:104EB0007DFD10BD0038014000080140EC000020DD
:104EC0007C7B0020000000200948804709480047FB
:104ED000FEE7FEE7FEE7FEE7FEE7FEE7FEE7FEE7AA
:104EE000FEE7FEE704480549054A064B7047000007
:104EF000BD0500083101000868B2002068B8002034
:104F000068B4002068B4002010B50446CA48844242
:104F100008D10121042000F027FB0021042000F02B
:104F200023FB46E0C548844208D10121082000F057
:104F30001BFB0021082000F017FB3AE0C048844228
:104F400008D10121102000F00FFB0021102000F0FB
:104F50000BFB2EE0BB48844208D10121202000F049
:104F600003FB0021202000F0FFFA22E0B648844233
:104F700008D10121402000F0F7FA0021402000F084
:104F8000F3FA16E0B148844208D10121802000F0F4
:104F9000EBFA0021802000F0E7FA0AE0AC488442F6
:104FA00007D10121801500F0DFFA0021A01500F0E3
:104FB000DBFA10BD10B50121084600F0D5FA00213A
:104FC000012000F0D1FA10BD2DE9F0410246002584
:104FD0000026002000230024002791F803C00CF0D5
:104FE0000F0591F803C01CF0100F03D091F802C018
:104FF0004CEA050591F800C0BCF1000F31D01468EF
:1050000000202BE04FF0010C0CFA00F3B1F800C0C7
:105010000CEA03069E4220D183004FF00F0C0CFADD
:1050200003F7BC4305FA03FC4CEA040491F803C0FF
:10503000BCF1280F06D14FF0010C0CFA00FCC2F8AD
:1050400014C00AE091F803C0BCF1480F05D14FF03D
:10505000010C0CFA00FCC2F810C0401C0828D1D387
:105060001460B1F800C0BCF1FF0F34DD54680020BB
:105070002EE000F1080C4FF0010808FA0CF3B1F82B
:1050800000C00CEA03069E4221D183004FF00F0CB2
:105090000CFA03F7BC4305FA03FC4CEA040491F84C
:1050A00003C0BCF1280F05D100F1080C08FA0CF878
:1050B000C2F8148091F803C0BCF1480F07D100F189
:1050C000080C4FF0010808FA0CF8C2F81080401CD8
:1050D0000828CED35460BDE8F0814FF6FF710180FF
:1050E000022181700421C17070470246002093683C
:1050F0000B4201D0012000E0002070470146886883
:1051000080B2704702460020D3680B4201D00120D4
:1051100000E0002070470146C86880B27047016116
:105120007047416170470AB1016100E04161704719
:10513000C16070474FF480320A43826181618261AD
:1051400082698269704702460020424B18684FF618
:105150008073184040EA021008433E4B18607047C5
:105160003D49C8617047F0B50A460023002400217C
:10517000002500F00046B6F1004F02D1354EF1692E
:1051800001E0344E7168C0F3034583B200F4401669
:10519000B6F5401F08D121F070612E4E766826F0DA
:1051A00070662C4F7E6012E000F48016B6F5801F0A
:1051B00006D1032606FA05F4A14341F0706106E02A
:1051C000460D360103FA06F6B14341F0706122B193
:1051D000460D360103FA06F6314300F00046B6F1FB
:1051E000004F02D11B4EF16101E01A4E7160F0BD1B
:1051F00030B500228B071C0F0F2303FA04F2154B66
:1052000008338C1053F824309343124C08348D101B
:1052100044F8253023468C1053F824308C07240F93
:1052200000FA04F423430B4C08348D1044F8253065
:1052300030BD0A490860704700080140000C014079
:10524000001001400014014000180140001C014002
:10525000002001400000014000002042DC0020420C
:10526000DD48006840F00100DB49086008464068FE
:10527000DA490840D849486008460068D8490840DB
:10528000D54908600846006820F480200860084678
:10529000406820F4FE0048604FF41F0088607047AB
:1052A000CD49096821F48031CB4A11601146096863
:1052B00021F480211160B0F5803F03D0B0F5802F3C
:1052C0000ED106E0C449096841F48031C24A116038
:1052D00007E0C149096841F4A021BF4A116000E01C
:1052E00000BF00BF704710B5014600220023002018
:1052F0004A11012A02D1B84C236806E0022A02D1E1
:10530000B54C236A01E0B44C636A01F01F0201242A
:1053100094401C4201D0012000E0002010BD38B5AF
:10532000002000900024002500BF3120FFF7DBFFA4
:1053300005460098401C00900098B0F5A06F01D081
:10534000002DF2D03120FFF7CEFF08B1012400E09C
:105350000024204638BD014600209F4A106820F0F6
:10536000F80040EAC100106070479E49086070472D
:1053700002460020984B586820F47C1042EA010352
:105380001843954B58607047964908667047014628
:105390000020914A506820F0030008435060704795
:1053A0008D48406800F00C007047014600208A4A92
:1053B000506820F0F000084350607047014600201C
:1053C000854A506820F4E060084350607047014609
:1053D0000020814A506820F4605040EAC1005060CB
:1053E000704729B17C4A527A02437B4B5A7204E0DF
:1053F000794A527A8243784B5A7270477A490860E8
:10540000704701460020744A506820F44040084329
:10541000506070470021754A11706F4A82F8201061
:10542000012802D0042808D103E001216F4A11703D
:1054300004E005216D4A117000E000BF00BF704715
:105440006B49086070476449096A0143624A116206
:105450007047674944390860704730B50021002221
:10546000002400235C4D6D6805F00C0121B1042976
:1054700005D0082923D105E05E4D056022E05D4D91
:1054800005601FE0544D6D6805F47012524D6D6853
:1054900005F48034022505EB92421CB9564D554364
:1054A00005600BE04C4D6D6815F4003F03D0524D84
:1054B0005543056002E04F4D5543056002E04D4DF8
:1054C000056000BF00BF444D6D6805F0F00109099B
:1054D0004A4D6B5C0568DD4045603F4D6D6805F4E5
:1054E000E061090A454D6B5C4568DD4085603A4DD9
:1054F0006D6805F46051C90A404D6B5C4568DD403C
:10550000C560354D6D6805F44041890B3C4D6B5CC1
:10551000C568B5FBF3F5056130BD29B12E4A526966
:1055200002432D4B5A6104E02B4A526982432A4BB5
:105530005A61704729B1284A92690243264B9A6101
:1055400004E0254A92698243234B9A61704729B14E
:10555000214AD2690243204BDA6104E01E4AD26933
:1055600082431D4BDA61704729B11B4AD26802435E
:10557000194BDA6004E0184AD2688243164BDA60AD
:10558000704729B1144A12690243134B1A6104E0AF
:10559000114A12698243104B1A617047144940390D
:1055A000086070470F49C86470470B49C87170475D
:1055B0000948406A40F080700749486270470146D8
:1055C0000020054A92680A4201D0012000E0002034
:1055D0007047014988727047001002400000FFF8D0
:1055E000FFFFF6FE00004242D80042422010024077
:1055F0008004424200127A0000093D00F4000020BD
:105600000401002010B50446FB48844209D1012161
:105610008803FFF7A9FF00214FF48040FFF7A4FFA4
:1056200032E0F648844209D101214804FFF7A9FF7E
:1056300000214FF40030FFF7A4FF25E0F04884423A
:1056400009D101218804FFF79CFF00214FF480203D
:10565000FFF797FF18E0EB48844209D10121C80405
:10566000FFF78FFF00214FF40020FFF78AFF0BE0C8
:10567000E548844208D101210805FFF782FF002197
:105680004FF48010FFF77DFF10BD2DE9F04786B085
:1056900005460E460024A24600BFA1460027B08959
:1056A00000B100BF2F462C8A4CF6FF700440F088F2
:1056B00004432C82AC894EF6F3100440B088318943
:1056C0000843718908430443AC81AC8A4FF6FF401C
:1056D0000440B0890443AC8201A8FFF7BEFEC6486F
:1056E000874202D1DDF810A001E0DDF80CA0A88906
:1056F00010F4004F08D00AEBCA0000EB0A10316822
:105700004900B0FBF1F807E00AEBCA0000EB0A1011
:1057100031688900B0FBF1F86420B8FBF0F00401B7
:105720002009642101FB1089A88910F4004F08D0DA
:10573000322000EBC900B0FBF1F000F00700044399
:1057400008E0322000EB09106421B0FBF1F000F01A
:105750000F0004432C8106B0BDE8F0874FF41651CA
:10576000016000218180C18001810C2141810021E3
:105770008181704710B502460020108A4FF2FF0366
:1057800018400B884C8823438C882343CC882343C0
:105790001843108210BD0021018041808180C180AA
:1057A000704721B1828942F40052828104E08289EB
:1057B0004DF6FF731A4082817047F0B5034600240E
:1057C000002600250020A1F510676A3F00D100BF28
:1057D0001846C1F3421401F01F06012707FA06F527
:1057E000012C01D10C3004E0022C01D1103000E07A
:1057F00014301AB107682F43076002E00768AF430F
:105800000760F0BD1AB1838A0B43838202E0838A6A
:105810008B4383827047028A4FF6F0731A400282EC
:10582000028A0A430282704782894FF2FF731A404C
:10583000828182890A438281704721B1828942F044
:105840000202828104E082894FF6FD731A40828150
:105850007047028A4FF6DF731A400282028A0A43B7
:105860000282704721B1028A42F48042028204E03F
:10587000028A4BF6FF731A4002827047C1F3080296
:105880008280704701468888C0F30800704781898C
:1058900041F0010181817047028BD2B20283028BF9
:1058A00042EA012202837047028B02F47F420283A4
:1058B000028B0A430283704721B1828A42F02002A0
:1058C000828204E0828A4FF6DF731A408282704738
:1058D00021B1828A42F01002828204E0828A4FF66D
:1058E000EF731A408282704721B1828A42F0080227
:1058F000828204E0828A4FF6F7731A4082827047F0
:1059000021B1828942F40042828103E08289C2F39C
:105910000E028281704721B1828A42F40062828243
:1059200004E0828A4FF2FF731A4082827047828AB3
:105930004FF6FB731A408282828A0A438282704742
:1059400021B1828A42F00202828204E0828A4FF60A
:10595000FD731A408282704702460020B1F5007F35
:1059600000D100BF13880B4201D0012000E00020CD
:10597000704701F40072B2F5007F00D100BFCA4346
:105980000280704770B502460024002300250020E5
:10599000A1F510666A3E00D100BFC1F3421501F0C7
:1059A0001F03012606FA03F3012D02D19689334025
:1059B00006E0022D02D1168A334001E0968A334078
:1059C0000C12012606FA04F41688344013B10CB107
:1059D000012000E0002070BD10B500220023A1F5D9
:1059E00010646A3C00D100BF0A1201249440A3B2A3
:1059F000DC43048010BD000000380140004400403A
:105A000000480040004C0040005000403149014334
:105A1000314A1160704770B5002100230F22C4780D
:105A20000CB32D4C246804F4E064C4F5E064210A4E
:105A3000C1F10403CA40447804FA03F184781440A5
:105A400021430901254C0678A155047804F01F056F
:105A50000124AC4005786D114FF0E02606EB85057A
:105A6000C5F8004109E0047804F01F050124AC40AA
:105A70001B4D0678761145F8264070BD194A0A403C
:105A80000243154B1B1F1A60704739B1124A121D91
:105A900012680243104B1B1D1A6006E00E4A121DCD
:105AA000126882430C4B1B1D1A607047042808D1F2
:105AB0004FF0E021096941F004014FF0E02211614B
:105AC00007E04FF0E021096921F004014FF0E022E6
:105AD000116170470000FA050CED00E000E400E001
